{
  "address": "0xe7f1725E7734CE288F8367e1Bb143E90bb3F0512",
  "abi": [
    {
      "inputs": [
        {
          "internalType": "address",
          "name": "priceFeedAddress",
          "type": "address"
        }
      ],
      "stateMutability": "nonpayable",
      "type": "constructor"
    },
    {
      "inputs": [],
      "name": "FundMe__NotOwner",
      "type": "error"
    },
    {
      "inputs": [
        {
          "internalType": "uint256",
          "name": "",
          "type": "uint256"
        }
      ],
      "name": "addressArray",
      "outputs": [
        {
          "internalType": "address",
          "name": "",
          "type": "address"
        }
      ],
      "stateMutability": "view",
      "type": "function"
    },
    {
      "inputs": [
        {
          "internalType": "address",
          "name": "",
          "type": "address"
        }
      ],
      "name": "addressToFunding",
      "outputs": [
        {
          "internalType": "uint256",
          "name": "",
          "type": "uint256"
        }
      ],
      "stateMutability": "view",
      "type": "function"
    },
    {
      "inputs": [],
      "name": "cheaperWithDraw",
      "outputs": [],
      "stateMutability": "nonpayable",
      "type": "function"
    },
    {
      "inputs": [],
      "name": "fund",
      "outputs": [],
      "stateMutability": "payable",
      "type": "function"
    },
    {
      "inputs": [],
      "name": "minimumUSD",
      "outputs": [
        {
          "internalType": "uint256",
          "name": "",
          "type": "uint256"
        }
      ],
      "stateMutability": "view",
      "type": "function"
    },
    {
      "inputs": [],
      "name": "owner",
      "outputs": [
        {
          "internalType": "address",
          "name": "",
          "type": "address"
        }
      ],
      "stateMutability": "view",
      "type": "function"
    },
    {
      "inputs": [],
      "name": "priceFeed",
      "outputs": [
        {
          "internalType": "contract AggregatorV3Interface",
          "name": "",
          "type": "address"
        }
      ],
      "stateMutability": "view",
      "type": "function"
    },
    {
      "inputs": [],
      "name": "withDraw",
      "outputs": [],
      "stateMutability": "nonpayable",
      "type": "function"
    }
  ],
  "transactionHash": "0xb0109001b96fc96314cf654f55a20dcfcfbf643ba6296b959f7dcc6b3e48679b",
  "args": [
    "0x5FbDB2315678afecb367f032d93F642f64180aa3"
  ],
  "numDeployments": 1,
  "solcInputHash": "cf11337bb0cfc7da942a7c4fd110cc85",
  "bytecode": "0x60a06040523480156200001157600080fd5b50604051620013fb380380620013fb833981810160405281019062000037919062000120565b3373ffffffffffffffffffffffffffffffffffffffff1660808173ffffffffffffffffffffffffffffffffffffffff1660601b8152505080600260006101000a81548173ffffffffffffffffffffffffffffffffffffffff021916908373ffffffffffffffffffffffffffffffffffffffff1602179055505062000152565b600080fd5b600073ffffffffffffffffffffffffffffffffffffffff82169050919050565b6000620000e882620000bb565b9050919050565b620000fa81620000db565b81146200010657600080fd5b50565b6000815190506200011a81620000ef565b92915050565b600060208284031215620001395762000138620000b6565b5b6000620001498482850162000109565b91505092915050565b60805160601c61127c6200017f600039600081816101f40152818161043b0152610717015261127c6000f3fe60806040526004361061007b5760003560e01c8063741bef1a1161004e578063741bef1a1461011657806379f962be146101415780638da5cb5b1461017e578063b60d4288146101a95761007b565b80630f96cf34146100805780630fdb1c10146100bd5780633430a88c146100d4578063599b4619146100ff575b600080fd5b34801561008c57600080fd5b506100a760048036038101906100a29190610b2a565b6101b3565b6040516100b49190610b98565b60405180910390f35b3480156100c957600080fd5b506100d26101f2565b005b3480156100e057600080fd5b506100e961042c565b6040516100f69190610bc2565b60405180910390f35b34801561010b57600080fd5b50610114610439565b005b34801561012257600080fd5b5061012b6106d7565b6040516101389190610c3c565b60405180910390f35b34801561014d57600080fd5b5061016860048036038101906101639190610c83565b6106fd565b6040516101759190610bc2565b60405180910390f35b34801561018a57600080fd5b50610193610715565b6040516101a09190610b98565b60405180910390f35b6101b1610739565b005b600081815481106101c357600080fd5b906000526020600020016000915054906101000a900473ffffffffffffffffffffffffffffffffffffffff1681565b7f000000000000000000000000000000000000000000000000000000000000000073ffffffffffffffffffffffffffffffffffffffff163373ffffffffffffffffffffffffffffffffffffffff1614610277576040517f579610db00000000000000000000000000000000000000000000000000000000815260040160405180910390fd5b60005b60008054905081101561031c576000600160008084815481106102a05761029f610cb0565b5b9060005260206000200160009054906101000a900473ffffffffffffffffffffffffffffffffffffffff1673ffffffffffffffffffffffffffffffffffffffff1673ffffffffffffffffffffffffffffffffffffffff16815260200190815260200160002081905550808061031490610d0e565b91505061027a565b50600067ffffffffffffffff81111561033857610337610d57565b5b6040519080825280602002602001820160405280156103665781602001602082028036833780820191505090505b506000908051906020019061037c929190610a48565b5060003373ffffffffffffffffffffffffffffffffffffffff16476040516103a390610db7565b60006040518083038185875af1925050503d80600081146103e0576040519150601f19603f3d011682016040523d82523d6000602084013e6103e5565b606091505b5050905080610429576040517f08c379a000000000000000000000000000000000000000000000000000000000815260040161042090610e29565b60405180910390fd5b50565b6802b5e3af16b188000081565b7f000000000000000000000000000000000000000000000000000000000000000073ffffffffffffffffffffffffffffffffffffffff163373ffffffffffffffffffffffffffffffffffffffff16146104be576040517f579610db00000000000000000000000000000000000000000000000000000000815260040160405180910390fd5b60008080548060200260200160405190810160405280929190818152602001828054801561054157602002820191906000526020600020905b8160009054906101000a900473ffffffffffffffffffffffffffffffffffffffff1673ffffffffffffffffffffffffffffffffffffffff16815260200190600101908083116104f7575b5050505050905060005b81518110156105c65760006001600084848151811061056d5761056c610cb0565b5b602002602001015173ffffffffffffffffffffffffffffffffffffffff1673ffffffffffffffffffffffffffffffffffffffff1681526020019081526020016000208190555080806105be90610d0e565b91505061054b565b50600067ffffffffffffffff8111156105e2576105e1610d57565b5b6040519080825280602002602001820160405280156106105781602001602082028036833780820191505090505b5060009080519060200190610626929190610a48565b5060003373ffffffffffffffffffffffffffffffffffffffff164760405161064d90610db7565b60006040518083038185875af1925050503d806000811461068a576040519150601f19603f3d011682016040523d82523d6000602084013e61068f565b606091505b50509050806106d3576040517f08c379a00000000000000000000000000000000000000000000000000000000081526004016106ca90610e29565b60405180910390fd5b5050565b600260009054906101000a900473ffffffffffffffffffffffffffffffffffffffff1681565b60016020528060005260406000206000915090505481565b7f000000000000000000000000000000000000000000000000000000000000000081565b6107786040518060400160405280600a81526020017f76616c75652073656e7400000000000000000000000000000000000000000000815250346108a1565b6802b5e3af16b18800006107b7600260009054906101000a900473ffffffffffffffffffffffffffffffffffffffff163461093d90919063ffffffff16565b10156107f8576040517f08c379a00000000000000000000000000000000000000000000000000000000081526004016107ef90610e95565b60405180910390fd5b6000339080600181540180825580915050600190039060005260206000200160009091909190916101000a81548173ffffffffffffffffffffffffffffffffffffffff021916908373ffffffffffffffffffffffffffffffffffffffff16021790555034600160003373ffffffffffffffffffffffffffffffffffffffff1673ffffffffffffffffffffffffffffffffffffffff16815260200190815260200160002081905550565b61093982826040516024016108b7929190610f3d565b6040516020818303038152906040527f9710a9d0000000000000000000000000000000000000000000000000000000007bffffffffffffffffffffffffffffffffffffffffffffffffffffffff19166020820180517bffffffffffffffffffffffffffffffffffffffffffffffffffffffff8381831617835250505050610979565b5050565b600080610949836109a2565b90506000670de0b6b3a764000082866109629190610f6d565b61096c9190610ff6565b9050809250505092915050565b60008151905060006a636f6e736f6c652e6c6f679050602083016000808483855afa5050505050565b60008082905060008173ffffffffffffffffffffffffffffffffffffffff1663feaf968c6040518163ffffffff1660e01b815260040160a06040518083038186803b1580156109f057600080fd5b505afa158015610a04573d6000803e3d6000fd5b505050506040513d601f19601f82011682018060405250810190610a2891906110b4565b5050509150506402540be40081610a3f919061112f565b92505050919050565b828054828255906000526020600020908101928215610ac1579160200282015b82811115610ac05782518260006101000a81548173ffffffffffffffffffffffffffffffffffffffff021916908373ffffffffffffffffffffffffffffffffffffffff16021790555091602001919060010190610a68565b5b509050610ace9190610ad2565b5090565b5b80821115610aeb576000816000905550600101610ad3565b5090565b600080fd5b6000819050919050565b610b0781610af4565b8114610b1257600080fd5b50565b600081359050610b2481610afe565b92915050565b600060208284031215610b4057610b3f610aef565b5b6000610b4e84828501610b15565b91505092915050565b600073ffffffffffffffffffffffffffffffffffffffff82169050919050565b6000610b8282610b57565b9050919050565b610b9281610b77565b82525050565b6000602082019050610bad6000830184610b89565b92915050565b610bbc81610af4565b82525050565b6000602082019050610bd76000830184610bb3565b92915050565b6000819050919050565b6000610c02610bfd610bf884610b57565b610bdd565b610b57565b9050919050565b6000610c1482610be7565b9050919050565b6000610c2682610c09565b9050919050565b610c3681610c1b565b82525050565b6000602082019050610c516000830184610c2d565b92915050565b610c6081610b77565b8114610c6b57600080fd5b50565b600081359050610c7d81610c57565b92915050565b600060208284031215610c9957610c98610aef565b5b6000610ca784828501610c6e565b91505092915050565b7f4e487b7100000000000000000000000000000000000000000000000000000000600052603260045260246000fd5b7f4e487b7100000000000000000000000000000000000000000000000000000000600052601160045260246000fd5b6000610d1982610af4565b91507fffffffffffffffffffffffffffffffffffffffffffffffffffffffffffffffff821415610d4c57610d4b610cdf565b5b600182019050919050565b7f4e487b7100000000000000000000000000000000000000000000000000000000600052604160045260246000fd5b600081905092915050565b50565b6000610da1600083610d86565b9150610dac82610d91565b600082019050919050565b6000610dc282610d94565b9150819050919050565b600082825260208201905092915050565b7f4572726f72206161206769610000000000000000000000000000000000000000600082015250565b6000610e13600c83610dcc565b9150610e1e82610ddd565b602082019050919050565b60006020820190508181036000830152610e4281610e06565b9050919050565b7f4e6f7420456e6f75676800000000000000000000000000000000000000000000600082015250565b6000610e7f600a83610dcc565b9150610e8a82610e49565b602082019050919050565b60006020820190508181036000830152610eae81610e72565b9050919050565b600081519050919050565b60005b83811015610ede578082015181840152602081019050610ec3565b83811115610eed576000848401525b50505050565b6000601f19601f8301169050919050565b6000610f0f82610eb5565b610f198185610dcc565b9350610f29818560208601610ec0565b610f3281610ef3565b840191505092915050565b60006040820190508181036000830152610f578185610f04565b9050610f666020830184610bb3565b9392505050565b6000610f7882610af4565b9150610f8383610af4565b9250817fffffffffffffffffffffffffffffffffffffffffffffffffffffffffffffffff0483118215151615610fbc57610fbb610cdf565b5b828202905092915050565b7f4e487b7100000000000000000000000000000000000000000000000000000000600052601260045260246000fd5b600061100182610af4565b915061100c83610af4565b92508261101c5761101b610fc7565b5b828204905092915050565b600069ffffffffffffffffffff82169050919050565b61104681611027565b811461105157600080fd5b50565b6000815190506110638161103d565b92915050565b6000819050919050565b61107c81611069565b811461108757600080fd5b50565b60008151905061109981611073565b92915050565b6000815190506110ae81610afe565b92915050565b600080600080600060a086880312156110d0576110cf610aef565b5b60006110de88828901611054565b95505060206110ef8882890161108a565b94505060406111008882890161109f565b93505060606111118882890161109f565b925050608061112288828901611054565b9150509295509295909350565b600061113a82611069565b915061114583611069565b9250827f7fffffffffffffffffffffffffffffffffffffffffffffffffffffffffffffff048211600084136000841316161561118457611183610cdf565b5b817f800000000000000000000000000000000000000000000000000000000000000005831260008412600084131616156111c1576111c0610cdf565b5b827f800000000000000000000000000000000000000000000000000000000000000005821260008413600084121616156111fe576111fd610cdf565b5b827f7fffffffffffffffffffffffffffffffffffffffffffffffffffffffffffffff058212600084126000841216161561123b5761123a610cdf565b5b82820290509291505056fea26469706673582212206ae99dc085d27d21d3040148f5943e38e9b7337a01aa74bb7210dcd42ce2160a64736f6c63430008080033",
  "devdoc": {
    "kind": "dev",
    "methods": {},
    "version": 1
  },
  "userdoc": {
    "kind": "user",
    "methods": {},
    "version": 1
  },
  "storageLayout": {
    "storage": [
      {
        "astId": 60,
        "contract": "contracts/FundMe.sol:FundMe",
        "label": "addressArray",
        "offset": 0,
        "slot": "0",
        "type": "t_array(t_address)dyn_storage"
      },
      {
        "astId": 64,
        "contract": "contracts/FundMe.sol:FundMe",
        "label": "addressToFunding",
        "offset": 0,
        "slot": "1",
        "type": "t_mapping(t_address,t_uint256)"
      },
      {
        "astId": 74,
        "contract": "contracts/FundMe.sol:FundMe",
        "label": "priceFeed",
        "offset": 0,
        "slot": "2",
        "type": "t_contract(AggregatorV3Interface)45"
      }
    ],
    "types": {
      "t_address": {
        "encoding": "inplace",
        "label": "address",
        "numberOfBytes": "20"
      },
      "t_array(t_address)dyn_storage": {
        "base": "t_address",
        "encoding": "dynamic_array",
        "label": "address[]",
        "numberOfBytes": "32"
      },
      "t_contract(AggregatorV3Interface)45": {
        "encoding": "inplace",
        "label": "contract AggregatorV3Interface",
        "numberOfBytes": "20"
      },
      "t_mapping(t_address,t_uint256)": {
        "encoding": "mapping",
        "key": "t_address",
        "label": "mapping(address => uint256)",
        "numberOfBytes": "32",
        "value": "t_uint256"
      },
      "t_uint256": {
        "encoding": "inplace",
        "label": "uint256",
        "numberOfBytes": "32"
      }
    }
  }
}